:1000000089C00000A3C00000A1C000009FC0000084
:100010009DC000009BC0000099C0000097C0000078
:1000200095C0000093C000000C94DD0E0C94AB0F43
:100030008DC000008BC0000089C0000087C0000098
:1000400085C0000083C0000081C000007FC00000A8
:100050007DC000007BC0000079C000000C94C30983
:1000600075C0000073C0000071C000006FC00000C8
:100070006DC000006BC0000069C0000067C00000D8
:1000800065C0000063C0000061C000005FC00000E8
:100090005DC000005BC0000059C0000057C00000F8
:1000A00055C0000053C0000051C0000010034700BD
:1000B00070006900620055007300620000001603C2
:1000C000580079007000680072006F004C006100F9
:1000D0006200730000000403090409022700010103
:1000E00000C0320904000002FE03010007050302FC
:1000F00040000507058202400005000000000000E6
:10010000001201100100000008EB0365200100014E
:100110000203010011241FBECFEFDAE0DEBFCDBF26
:1001200011E0A0E0B1E0E4ECF2E202C005900D9233
:10013000AC31B107D9F721E0ACE1B1E001C01D92CB
:10014000AD3EB207E1F7F6D70C94601159CFEFE559
:10015000F0E03FB7F89493E090937B01882309F493
:100160005CC087E490E090937D0180937C0180E502
:1001700090E090937F0180937E0189E490E09093DA
:1001800081018093800182E490E0909383018093C9
:100190008201F0938501E0938401809102016AE07D
:1001A0000E943511482F50E0405D5F4F509387010A
:1001B00040938601892F90E0C096909389018093A7
:1001C0008801F0938B01E0938A0188E020E06EE0E3
:1001D00071E2982F920FE62FF0E070935700E491B0
:1001E00020FF03C0E295EF706F5FEF704E2F50E07D
:1001F000EA30A8F0495C5F4FE92FF0E0EE0FFF1FF7
:10020000E458FE4F518340832F5F243111F78B5EFA
:10021000880F80937A013FBF089580E0D7CF405D7B
:100220005F4FEACF982F80ED890F8A3040F08FE939
:10023000890F863018F489EA890F089580E02FEB42
:10024000290F2630D0F789ECF7CF85E38A95F1F7AF
:1002500000008091750190917601A0917701B09195
:1002600078010097A105B10569F00197A109B109CD
:100270008093750190937601A0937701B0937801F4
:1002800080E0089581E008950E941B1190916A0119
:1002900080916B01892B08950E941B1190916B0135
:1002A00080916A01892B08950E94680EF8942FEFBF
:1002B00087EA91E6215080409040E1F700C00000BD
:1002C00088E19CE00FB6F894A895809360000FBE7B
:1002D00090936000EFEFF9E628E1E150F040204014
:1002E000E1F700C00000E0E0F0E70995FFCF0E94D1
:1002F000CE0B982F81E09F3F11F480E091E0909326
:10030000020108950F931F93CF93DF9300D0CDB7D1
:10031000DEB710927A0180EA96E8A1E0B0E080931F
:10032000750190937601A0937701B093780165E20F
:1003300071E0809102010E949A0B80917501909169
:100340007601A0917701B0917801892B8A2B8B2BB4
:1003500009F461C045E251E060E08AE20E94BE0B10
:100360008091750190917601A0917701B09178010B
:10037000892B8A2B8B2B09F44EC045E251E060E0BB
:1003800089E40E94BE0B8091750190917601A09145
:100390007701B0917801892B8A2B8B2BE1F145E213
:1003A00051E060E084E40E94BE0B80917501909161
:1003B0007601A0917701B0917801892B8A2B8B2B44
:1003C00051F145E251E060E08EE40E94BE0B809165
:1003D000750190917601A0917701B0917801892BF8
:1003E0008A2B8B2BC1F045E251E060E08FE30E9445
:1003F000BE0B8091750190917601A0917701B0912B
:100400007801892B8A2B8B2B31F045E251E061E09A
:100410008AE00E94BE0B85E291E00E94650B80910C
:10042000750190917601A0917701B0917801892BA7
:100430008A2B8B2B09F45AC180EA96E8A1E0B0E040
:100440008093750190937601A0937701B093780122
:1004500065E271E0809102010E947B0B00E010E0F8
:1004600045E251E0BE016F5F7F4FCE0102960E94D0
:10047000DA0A011131C001E08C3209F000E0982F56
:100480009F7E9A3259F19F3249F18C3539F1982F7C
:100490009D7F903219F18C3209F18632F9F090EE9D
:1004A000980F9F3550F4E12FF0E0EE0FFF1FE45856
:1004B000FE4F90E0918380831F5F123330F4898177
:1004C000811103C08A81882359F2E12FF0E0EE0FF9
:1004D000FF1FE458FE4F05C001E0D1CF8FE5E3CF09
:1004E0001150929182918F35910511F41230C0F71D
:1004F00081E0810F880F80937A0185E291E00E946C
:10050000650B8091750190917601A0917701B09172
:100510007801892B8A2B8B2B11F01111D3C080EA23
:1005200096E8A1E0B0E08093750190937601A093E6
:100530007701B093780165E271E0809102010E9439
:100540009A0B8091750190917601A0917701B091FD
:100550007801892B8A2B8B2BE1F145E251E060E099
:1005600089E40E94BE0B8091750190917601A09163
:100570007701B0917801892B8A2B8B2B51F145E2C1
:1005800051E060E084E40E94BE0B8091750190917F
:100590007601A0917701B0917801892B8A2B8B2B62
:1005A000C1F045E251E060E08FE30E94BE0B809114
:1005B000750190917601A0917701B0917801892B16
:1005C0008A2B8B2B31F045E251E061E08AE00E94FA
:1005D000BE0B85E291E00E94650B809175019091C0
:1005E0007601A0917701B0917801892B8A2B8B2B12
:1005F00009F468C080EA96E8A1E0B0E08093750154
:1006000090937601A0937701B093780165E271E051
:10061000809102010E947B0B10E045E251E0BE0197
:100620006F5F7F4FCE010296C5D7011136C001E042
:100630008C3209F000E0982F9F7E9A3281F19F3230
:1006400071F18C3561F1982F9D7F903241F18C32A0
:1006500031F1863221F190EE980F9F3558F4E12F59
:10066000F0E0EE0FFF1FE458FE4F282F30E03183FB
:1006700020831F5F123350F49981911107C09A8132
:10068000911104C08D3011F08A3039F6E12FF0E07D
:10069000EE0FFF1FE458FE4F05C001E0CCCF8FE501
:1006A000DECF1150929182918F35910511F4123065
:1006B000C0F781E0810F880F80937A0185E291E095
:1006C0000E94650B002351F101E08091750190912A
:1006D0007601A0917701B0917801892B8A2B8B2B21
:1006E00029F0112319F011E0011103C081E02FDD81
:1006F00010E080E07CD62FEF81EE94E02150804026
:100700009040E1F700C0000081E071D6812F0F908A
:100710000F90DF91CF911F910F91089588E490E0A1
:1007200090937D0180937C0180E590E090937F0120
:1007300080937E018091800190918101C0970A97FA
:1007400008F4C2CFC2CF1A9BAFCD08951F93CF93A9
:10075000DF93D82FC92F162FF999FECF8D2F9C2FFD
:100760000E944A11811751F0F999FECF612F8D2F08
:100770009C2FDF91CF911F910C945211DF91CF915B
:100780001F91089584B7877F84BF0FB6F894A8950A
:1007900080916000886180936000109260000FBEBD
:1007A00080E890E00FB6F894809361009093610028
:1007B0000FBE0E94C00EE0EEF0E080818160808379
:1007C00080E0C5DC859A8D9A08950895089542E3E6
:1007D00061EC81E00E94E40D42E361E882E00E9466
:1007E000E40D42E360E883E00C94E40DCF93809144
:1007F000E9019091EA01009731F48091E50180FDD3
:100800000BC0CF9108958238910511F00397C9F775
:100810008091E50181FFF5CF8091E601873009F4F1
:100820001BC108F041C0843009F4DEC030F58230CD
:1008300009F47EC0833009F4B1C0813011F7909182
:10084000E501923AF1F690916C0191116DC0909191
:1008500069012091E7013091E8019217130609F030
:1008600065C091E090936C0191E090936A01909142
:10087000E800977F9093E8003EC09091E5018530B5
:1008800009F0CCC0913A09F0BCCF90916C0199234A
:1008900009F4BCC083E88093F1008091E800877F71
:1008A0008093E80081E027C0803A09F407C130F561
:1008B000803409F4E6C0803809F0A3CFC091E70185
:1008C00080E593ECA0E0B0E0809375019093760111
:1008D000A0937701B093780165E271E08091020105
:1008E000B6D69091E800977F9093E80091E09093BE
:1008F000F100C093F1008093F10048C0813A09F4FF
:10090000E5C0823A09F07DCF80E593ECA0E0B0E04D
:100910008093750190937601A0937701B09378014D
:1009200085E291E03CD6B9CF83E89ECF81E89CCFA9
:100930009091E501923A09F064CF90916C01913069
:1009400009F062C090916A01911103C010926C018C
:1009500081E09091E800977F9093E8008093F10008
:100960001092F1001092F10080916701909168015E
:100970008093F100B0E0A0E0892F9A2FAB2FBB2726
:100980008093F1001092F1001092F1008091E80044
:100990008E778093E800CF910C94180E9091E5012A
:1009A000923A09F02ECF90916C01911119C090915B
:1009B00069012091E7013091E8019217130691F443
:1009C00080936C0181E091E090936B019091E8003D
:1009D000977F9093E8008093F100809169018BCF1D
:1009E00083E8F1CF81E8EFCF8091E501823A09F009
:1009F00008CF80916C01833039F480916B0188239A
:100A000009F4A4CF82E0A5CF82E8A3CF91E0909330
:100A10006B0190936A0180936C013FCF913A09F08A
:100A2000F0CE80916C01853099F480916B01811139
:100A300011C080916A0181110DC010926C0181E09A
:100A40009091E800977F9093E8008093F1009CCF0D
:100A500082E8F6CF82E0F4CF8091E501813A09F097
:100A6000D0CE8091E800877F8093E80068E170E055
:100A700083E091E089D78091E8008B778093E8004C
:100A8000C0CE8091E800877F8093E800C1E0C093EA
:100A9000F1008091E8008E778093E8000E94180EA4
:100AA0008D982FEF84E39CE0215080409040E1F747
:100AB00000C000008D9AC0932601A3CE8091E7016B
:100AC000813011F494D4E9CE80E0FCCF80E593EC42
:100AD000A0E0B0E08093750190937601A093770138
:100AE000B093780165E271E08091020140D5D5CEE6
:100AF0000F931F93CF93DF938C01FC01818192DBD5
:100B0000D82FF80182818EDBD295D07FD80FF801E3
:100B1000838188DBC82FF801848184DB6C2F629588
:100B2000607F680FDD2339F0D13061F0DF91CF9124
:100B30001F910F91089588E690E0DF91CF911F916A
:100B40000F9104CE613041F0623081F060E089E6BF
:100B500090E0FCDD80E005C06AE089E690E0F6DD2B
:100B60008AE0DF91CF911F910F910EC66DE089E66B
:100B700090E0ECDD8DE0F5CFDF92EF92FF920F93E6
:100B80001F93CF93DF937C01D62FC42FD22E442303
:100B9000F1F0809126018823D1F0F7018081813224
:100BA000B1F4C701A5DF22C0D150F70181917F01C7
:100BB000D11101C0CD2D6C2F6170A801DFD510C0FF
:100BC000DD2099F0C11111C0C8017FD50EC081E0B0
:100BD0000ED48D98CC2329F0B80180910201AAD5BA
:100BE000C82FDD2369F3CC23F9F28D9A10922601E8
:100BF000DF91CF911F910F91FF90EF90DF900895BB
:100C00008F929F92AF92BF92CF92DF92EF92FF921C
:100C10000F931F93CF93DF9300D0CDB7DEB7E82EAD
:100C2000B92EA62EF42E690181E0E1D38D981982A8
:100C3000FF2029F0B801809102015DD589831A82D5
:100C400087E2882E81E0982EF12C89819A8191117A
:100C500031C0FA1499F18823F1F081E08A838A8106
:100C6000F60180834F2D50E067E271E08E2D9B2DC1
:100C70000E9441118D9A8F2D0F900F90DF91CF918F
:100C80001F910F91FF90EF90DF90CF90BF90AF90AA
:100C90009F908F900895A801BE016F5F7F4FCE0196
:100CA000029688D499819111D0CFF394F401819365
:100CB0004F01CBCF8111D1CFC80107D589818823BE
:100CC00071F2CBCF81E080930101809300011092FB
:100CD00022011092230110922401109225018DC34C
:100CE0000F931F93CF93DF9300D0CDB7DEB78C0166
:100CF00083E08093E9008091E80082FF21C01A829E
:100D00001982AE014F5F5F4F6CE070E0C801EFD514
:100D1000982F80916A01953011F4882391F3F8019E
:100D2000218120936901811102C081E0911180E04D
:100D300081700F900F90DF91CF911F910F910895C7
:100D400080E0F7CF0F931F93CF93DF9300D0CDB701
:100D5000DEB78C0180916901F801818380958283DF
:100D600082E08093E9001A821982AE014F5F5F4FE3
:100D70006CE070E0C8016ED5982F80916B019530C2
:100D800069F081110DC081E091110AC081700F904E
:100D90000F90DF91CF911F910F910895882329F330
:100DA00080E0F4CFBF92CF92DF92EF92FF920F9349
:100DB0001F93CF93DF93CDB7DEB7CD58D1090FB6D0
:100DC000F894DEBF0FBECDBF8091E401843009F0FE
:100DD000CEC08091220190912301A0912401B09175
:100DE0002501892B8A2B8B2B09F03CC1CE018F5713
:100DF0009F4F76DF882309F4AEC080911C0190914B
:100E00001D01019690931D0180931C01CF57DF4F68
:100E10008881C158D040823009F4BAC0803809F4C2
:100E200084C0813009F018C1CB57DF4F3881C558D5
:100E3000D040CA57DF4F2881C658D040C957DF4F2E
:100E40009881C758D040C857DF4F8881C858D040D4
:100E50003093220120932301909324018093250154
:100E60001092680110926701C32ED22EE92EF82E3F
:100E700085E3C816D104E104F10428F094E3C92EF7
:100E8000D12CE12CF12CBC2C47E651E0B601CE016F
:100E900001962DD5853021F480916A018823A1F334
:100EA0008091220190912301A0912401B09125010C
:100EB0008C199D09AE09BF098093220190932301EB
:100EC000A0932401B0932501C757DF4F2881C9584B
:100ED000D04031E0211101C030E03093790122236C
:100EE00029F021E0892B8A2B8B2B09F020E021703F
:100EF000C357DF4F2883CD58D04004E411E0409120
:100F000001016B2DCE01019637DE83E08093E9006D
:100F10008091E8008B778093E800C357DF4F88818A
:100F2000CD58D0408093010116C080E593ECA0E03D
:100F3000B0E08093750190937601A0937701B09310
:100F4000780165E271E080910201F8D28091E800B9
:100F50008B778093E80080916A01811103C08091B2
:100F60006B018111AFDE10926B0110926A01C357C1
:100F7000DF4F0FB6F894DEBF0FBECDBFDF91CF912C
:100F80001F910F91FF90EF90DF90CF90BF90089549
:100F90008091E8008B778093E800CB57DF4F688122
:100FA00079818A819B81C558D04064337105810560
:100FB000910520F063E370E080E090E00CE411E044
:100FC0009E0123573F4F40910001CE01019618DE4C
:100FD00090E0B0E0A0E0CB57DF4F88839983AA83ED
:100FE000BB83C558D040C357DF4F8881CD58D04010
:100FF00080930001C757DF4F8883C958D040809144
:101000006B01811104C0CE018F579F4F9BDE109260
:1010100068011092670180916B01882379F082E06A
:101020008093E9008091E8008E778093E8008091BA
:101030006B01882309F48FCF45DE8DCFCB57DF4F6F
:1010400068817981C558D04047E651E0CE010196CC
:1010500001D4853001F3E3CF8091EB00806280936F
:10106000EB0079CF83E08093E9008091E80082FF74
:1010700072CF1092680110926701C0902201D09047
:101080002301E0902401F090250180E4C816D104EA
:10109000E104F10408F048C0BC2C47E651E0B60179
:1010A000CE01019624D4853021F480916A018823F1
:1010B000A1F38091220190912301A0912401B0918C
:1010C00025018C199D09AE09BF09809322019093D7
:1010D0002301A0932401B09325018091E8008B7730
:1010E0008093E80080917901882369F021E0809164
:1010F000220190912301A0912401B0912501892B17
:101100008A2B8B2B09F020E02170C357DF4F2883F7
:10111000CD58D0402093010104E411E040E06B2D54
:10112000CE01019629DD17CF80E4C82ED12CE12C09
:10113000F12CB2CF14BE0FB6F894A8958091600040
:10114000886180936000109260000FBE2A9A2298F6
:1011500019DB67D1F999FECF89E690E00E944A1128
:1011600013D378943DD1882309F450C0C0D8882384
:1011700009F462C0F999FECF88E690E00E944A1116
:10118000813009F49BC0F999FECF90E080E00E9485
:101190004A11C82FB7D8882309F47CC06091020196
:1011A00090E080E0D3DAC1E0D0E00AE711E0F80196
:1011B00060810F5F1F4FCE01C9DA2196C736D10576
:1011C000B1F78D9A8091E0008E7F8093E000EADD98
:1011D000BADA06D1811183C08D988091E0008160D8
:1011E0008093E0009FEFE9E6F8E19150E040F040A5
:1011F000E1F700C0000088E19CE00FB6F894A895E4
:10120000809360000FBE90936000FFCF2FEF84E3C8
:101210009CE0215080409040E1F700C000008D9A92
:10122000EFEFF4E32CE0E150F0402040E1F700C0A4
:1012300000008D9888DA96CF8FEF91EEE4E0815030
:101240009040E040E1F700C000008D9AFFEF21EEF2
:1012500084E0F15020408040E1F700C000008D980C
:10126000BFD0811115C08D989FEFE9E6F8E191504C
:10127000E040F040E1F700C0000088E19CE00FB6DC
:10128000F894A895809360000FBE90936000FFCF04
:101290005ADA6CCF80910201C81393CFC1E0D0E03D
:1012A0000AE711E078010F5F1F4FCE01F3D7F70176
:1012B00080832196C736D105A9F783CF81E00E94AC
:1012C000A70080E094D0FFEF21EE84E0F1502040B1
:1012D0008040E1F700C0000081E089D072CFABD739
:1012E00076CFBC01DA01F901872F9927108282306D
:1012F000910589F18330910549F00197A1F482E1CC
:1013000090E021E031E02D933C930895CB019927A3
:101310006230F1F08330910558F4009799F0EEEBCC
:10132000F0E0019789F090E080E030E020E0EBCF42
:101330000397C9F780917A0190E022E020832AE7A1
:1013400031E0E1CFE6EDF0E0849190E09F01DBCF6A
:10135000ECEAF0E0F9CF87E290E02AED30E0D3CF7D
:1013600085E38A95F1F7000080916D0190916E01FF
:10137000009739F0019790936E0180936D0180E0A2
:10138000089581E008951F921FB61F9211248F9334
:10139000809173018F5F809373018630C0F08091DC
:1013A00074018F5F809374011092730180917001BA
:1013B00081110DC07E9910C080917101823021F49D
:1013C00081E08093720103C08F5F809371018F91E0
:1013D0001F901FBE1F9018951092710182E0F1CFEF
:1013E00081E090917201923009F080E008958823A5
:1013F00011F0259A0895259808956A9A2FEF81EEA5
:1014000094E0215080409040E1F700C000006A98CD
:101410008FE39CE90197F1F700C000001092700182
:1014200008951AB81BB885B18F7885B984B18F78C3
:1014300084B988B18F7388B987B18F7387B972986F
:101440006A9881B38F7381BB80B38F7380BB259AF9
:101450001092700110927101D0DF85E085BDEEE63B
:10146000F0E080818160808310927301109274019A
:1014700008950F931F93CF938A0126983E983F9823
:101480006623B1F0869A8AB985E08A95F1F7000063
:10149000F8010995C82F36990DC08823C9F31AB8E9
:1014A0008698C111BEDF8C2FCF911F910F910895A7
:1014B0008698E9CF8111F3CF269AF8010995C82FB4
:1014C000379902C08823C9F32698E9CF1F93CF9399
:1014D000DF93C82F162FD72F8F71462F572F61E01C
:1014E0008064C7DFC07E41F0412F5D2F61E080E660
:1014F000DF91CF911F91BDCFDF91CF911F910895C3
:101500001F93CF93DF93C82F162FD72F8F71462F9E
:10151000572F61E08062ADDFC07E41F0412F5D2F2B
:1015200061E080E6DF91CF911F91A3CFDF91CF9152
:101530001F910895AC0161E08FE39BCFCF93DF93C0
:10154000D62FC72FDDDF882329F06BDF81E0DF9105
:10155000CF9108954D2F5C2F61E088E08ADF8111E3
:10156000F4CF8D2F9C2FE6DF882389F3EECFCF9326
:10157000DF93D62FC72FC4DF882321F052DFDF91FE
:10158000CF9108954D2F5C2F61E081E072DF8111D2
:10159000F5CF8D2F9C2FCEDF882389F3EFCFCF930C
:1015A000AC0161E081E165DFC82F81113ADF8C2F4A
:1015B000CF910895BF92CF92DF92EF92FF920F9357
:1015C0001F93CF93DF938C016B017A013F9A3E9872
:1015D000F7010995C82F83B1F82FF074BF2E86FF4D
:1015E00005C0CC23A9F3D0E0B12C13C0D0E0C111C9
:1015F00010C03E9AB9B0B094D3B1D295D17081E009
:10160000D8273F98F7010995C82F1E9902C0882353
:10161000C9F390916F01911111C0F801D083C111EC
:1016200000DFF601C0838B2DDF91CF911F910F91C9
:10163000FF90EF90DF90CF90BF90089581E0D1119F
:1016400002C09B1180E08170F8018083E8CFFF9297
:101650000F931F93CF93DF9300D0CDB7DEB7F82E53
:101660008B011A82AB0161E088E103DF8A8381117B
:1016700004C0B8018F2D2ADF8A8386983F9A8A8119
:10168000F12C811118C0A801BE016E5F7F4FCE0101
:10169000019690DFF82E8A8181110DC0A80161E0CA
:1016A0008FE5E7DE8A83811106C0A80161E089E148
:1016B000E0DE8A838111B5DE8F2D0F900F90DF91D0
:1016C000CF911F910F91FF900895CF93DF93D82F63
:1016D000C92F30DF882339F0A4DE81E01092700139
:1016E000DF91CF9108954D2F5C2F61E08FE5C1DE32
:1016F0008823A1F3F1CF0F931F93CF93DF93082F8C
:10170000162FD72F81E080937001862F972F12DF3D
:10171000C82F811105C0612F7D2F802FD7DEC82FE4
:1017200086983F9AC1117DDE8C2FDF91CF911F915A
:101730000F9108951F93CF93DF93182FD62FC72FA4
:1017400081E080937001462F572F61E08FE591DE95
:10175000882349F0C1E08698C11163DE8C2FDF91A8
:10176000CF911F9108958D2F9C2FE4DE8111F2CF30
:101770006D2F7C2F812FC4DEC82FEDCF6111249AED
:1017800060E077DE249808958A3029F08D3019F0D2
:1017900010926F01089580936F0108950F931F9326
:1017A000CF93DF9384EF91E090936E0180936D016E
:1017B00040EB59E061E08FE35CDECEE304EF11E043
:1017C000DC2F8C2F8F718F3189F5C150C8F7DFEF77
:1017D00084EF91E090936E0180936D0140EB59E0AE
:1017E00061E08FE346DEC5FF1BC0CF7160EB79E09F
:1017F0008C2F86DE86988FE39FE10197F1F700C07A
:101800000000379902C07E99DC2F84EF91E090931D
:101810006E0180936D0140EB59E061E08FE329DEBA
:101820008D2FDF91CF911F910F91089510936E012D
:1018300000936D0160EB79E08C2F62DE86988FE378
:101840009FE10197F1F700C000003799BECF7E9B62
:10185000BCCFBECFAF92BF92CF92DF92FF920F93D9
:101860001F93CF93DF936C01EB018A0100D2F82E16
:10187000811123C00115110539F0F8018081918192
:10188000C81BD90BC80ED91EB12CA12C2097A9F0CA
:101890008091E80085FD21C08091E8008E778093DB
:1018A000E80001151105A1F0F80180819181A80ED1
:1018B000B91EB182A08285E0F82E8F2DDF91CF91E5
:1018C0001F910F91FF90DF90CF90BF90AF90089540
:1018D000CED18823D9F2F82EF0CFF60181916F0195
:1018E0008093F1002197FFEFAF1ABF0ACFCFAF92DD
:1018F000BF92CF92DF92FF920F931F93CF93DF930C
:101900006C01EB018A01B3D1F82E811123C00115BE
:10191000110539F0F80180819181C81BD90BC80EDF
:10192000D91EB12CA12C2097A9F08091E80085FD4B
:1019300021C08091E8008B778093E80001151105A4
:10194000A1F0F80180819181A80EB91EB182A08218
:1019500085E0F82E8F2DDF91CF911F910F91FF9091
:10196000DF90CF90BF90AF90089581D18823D9F2B6
:10197000F82EF0CF8091F100F60181936F0121974D
:10198000FFEFAF1ABF0ACFCFFC01CB012091EB01D3
:101990003091EC012617370790F0009729F4209139
:1019A000E8002E772093E80040E0009751F44111C1
:1019B00008C08091E80082FF31C080E00895C9012D
:1019C000F3CF2091E4012223A9F12530A9F1209140
:1019D000E80023FD2DC02091E80022FDEACF2091F0
:1019E000E80020FFE2CF3091F3002091F200009751
:1019F00019F02830310558F041E02830310509F060
:101A000040E02091E8002E772093E800CECF41916E
:101A10004093F10001972F5F3F4FE9CF8091E401A0
:101A2000882341F0853041F08091E80083FFC1CFE9
:101A300081E0089582E0089583E00895FC01CB01E0
:101A40002091EB013091EC012617370790F00097B9
:101A500029F42091E8002E772093E80040E00097D9
:101A600051F4411108C08091E80082FF32C080E04B
:101A70000895C901F3CF2091E4012223B1F125306B
:101A8000B1F12091E80023FD2EC02091E80022FD55
:101A9000EACF2091E80020FFE2CF3091F3002091BF
:101AA000F200009719F02830310558F041E0283055
:101AB000310509F040E02091E8002E772093E800FE
:101AC000CECF44914093F100319601972F5F3F4F65
:101AD000E8CF8091E401882341F0853041F0809186
:101AE000E80083FFC0CF81E0089582E0089583E09D
:101AF0000895EF92FF920F931F93CF93DF937C0192
:101B0000EB018091EB019091EC0186179707C0F0F3
:101B1000209729F48091E8008E778093E80080E098
:101B2000209781F481110EC08091E80082FF3CC0B3
:101B300080E0DF91CF911F910F91FF90EF9008957A
:101B4000EC01EDCF9091E4019923D1F19530D1F1E1
:101B50009091E80093FD32C09091E80092FDE4CFAF
:101B60009091E80090FFDCCF8091F3000091F200AB
:101B7000182F209719F00830110558F081E008302F
:101B8000110509F080E09091E8009E779093E800BD
:101B9000C7CFC7017FD38093F1008FEFE81AF80A0F
:101BA00021970F5F1F4FE5CF8091E401882341F01B
:101BB000853041F08091E80083FFB6CF81E0B9CF56
:101BC00082E0B7CF83E0B5CF982F973028F08F70A1
:101BD0008093E90081E008959093E900242F762F07
:101BE00050E0981731F07091EC002091ED00509189
:101BF000F00021FD02C09F5FE8CF3091EB003E7FF7
:101C00003093EB003091ED003D7F3093ED0030914B
:101C1000EB0031603093EB007093EC002093ED000B
:101C20005093F0002091EE0027FDE5CF80E008956D
:101C30008091E50187FF13C08091E80082FF06C014
:101C40008091E8008B778093E80004C08091E401E4
:101C50008111F2CF08958091E4018823D9F3809116
:101C6000E80080FFF8CF8091E8008E77ECCF2091DC
:101C7000E4003091E50095E6A9012091EC00822F67
:101C8000817020FF06C08091E80080FF06C080E0E0
:101C900008952091E80022FD1AC08091E401882374
:101CA00089F0853089F08091EB0085FD0FC020918F
:101CB000E4003091E50042175307F9F29150E1F644
:101CC00084E0089582E0089583E0089581E0089516
:101CD00067D06ED0E0EEF0E0808181608083E8ED37
:101CE000F0E080818F77808319BCA7EDB0E08C9104
:101CF0008E7F8C9380818F7E80831092E301089584
:101D00000F931F93CF93DF934BD052D0C8EDD0E009
:101D100088818F77888388818068888388818F7D98
:101D2000888319BC1092E4011092E0011092E20144
:101D30001092E10100EE10E0F80180818B7F80833A
:101D400088818160888342E060E080E03DDFE1EEF1
:101D5000F0E080818E7F8083E2EEF0E08081816020
:101D60008083808188608083F80180818E7F80837A
:101D7000888180618883DF91CF911F910F910895B1
:101D8000E8EDF0E080818F7E8083E7EDF0E08081F8
:101D90008160808384E082BF81E08093E301B0CFE3
:101DA000E8EDF0E080818E7F80831092E20008955C
:101DB0001092DA001092E10008951F920F920FB670
:101DC0000F9211242F933F934F935F936F937F93C1
:101DD0008F939F93AF93BF93EF93FF938091E10015
:101DE00082FF0AC08091E20082FF06C08091E1007C
:101DF0008B7F8093E1001ED28091DA0080FF19C0B2
:101E00008091D80080FF15C08091DA008E7F80938A
:101E1000DA008091D90080FF90C080E189BD82E125
:101E200089BD09B400FEFDCF81E08093E4010E94EA
:101E3000E5038091E10080FF18C08091E20080FFFF
:101E400014C08091E2008E7F8093E2008091E200D6
:101E500080618093E2008091D80080628093D800F6
:101E600019BC85E08093E401E5D18091E10084FF15
:101E700028C08091E20084FF24C080E189BD82E116
:101E800089BD09B400FEFDCF8091D8008F7D80937D
:101E9000D8008091E1008F7E8093E1008091E20084
:101EA0008F7E8093E2008091E20081608093E20067
:101EB0008091E001882309F446C084E08093E40126
:101EC000B9D18091E10083FF27C08091E20083FFB8
:101ED00023C08091E100877F8093E10082E08093BE
:101EE000E4011092E0018091E1008E7F8093E10097
:101EF0008091E2008E7F8093E2008091E200806119
:101F00008093E20042E060E080E05EDE8091F000DD
:101F100088608093F0008ED1FF91EF91BF91AF91D7
:101F20009F918F917F916F915F914F913F912F91F1
:101F30000F900FBE0F901F90189519BC1092E401DE
:101F40000E94E60376CF8091E30087FD02C081E026
:101F5000B5CF83E0B3CF1F920F920FB60F9211242B
:101F60002F933F934F935F936F937F938F939F93A1
:101F7000AF93BF93CF93DF93EF93FF93D091E9009B
:101F8000DF708091EC00C82FC17080FDC0E8109216
:101F9000E9008091F000877F8093F00078941ED054
:101FA0001092E9008091F00088608093F000CD2BC2
:101FB000CF70C093E900FF91EF91DF91CF91BF9176
:101FC000AF919F918F917F916F915F914F913F91D1
:101FD0002F910F900FBE0F901F9018951F93CF93C6
:101FE000DF9300D00F92CDB7DEB785EE91E0FC0114
:101FF00001962091F100208321E08D3E9207B9F7F0
:102000000E94F6038091E80083FF10C08091E501F3
:102010009091E601953009F4A7C0E8F4292F2D7FAF
:10202000213009F46EC0992309F443C08091E8007F
:1020300083FF0AC08091E800877F8093E800809149
:10204000EB0080628093EB000F900F900F90DF9178
:10205000CF911F910895983009F4ACC0993009F4DC
:10206000B6C0963019F78058823000F76091E901C8
:102070007091EA019E012D5F3F4FAE014F5F5F4FB0
:102080008091E7019091E8012CD9BC01892B71F274
:102090008091E800877F8093E8002B8189819A8175
:1020A000211182C0CBDC8091E8008B778093E8001F
:1020B000BDCF803899F0823809F0B8CF8091E9011E
:1020C0008F70873008F0B2CF8093E9008091EB00E9
:1020D00085FB882780F91092E90006C08091E10114
:1020E0009091E201911182609091E800977F909326
:1020F000E8008093F1001092F1008091E8008E7763
:1021000095C0882309F482C0823009F08FCF809176
:10211000E701811186C08091E9018F702FEF280FB0
:10212000263008F083CF8093E9002091EB0020FF58
:1021300078C0933031F48091EB0080628093EB00A3
:1021400070C09091EB0090619093EB0021E030E043
:1021500001C0220F8A95EAF72093EA001092EA0064
:102160008091EB008860EACF811160CF1091E70188
:102170001F778091E3008078812B8093E30080912A
:10218000E800877F8093E80053DD8091E80080FFBE
:10219000FCCF8091E30080688093E30082E011111E
:1021A00083E08093E40142CF213011F4A2DC7BCFA5
:1021B000EBDB79CF803809F039CF8091E800877F59
:1021C0008093E8008091E0018093F10096CF811127
:1021D0002DCF9091E701923008F028CF8091E80050
:1021E000877F8093E8009093E00122DD8091E001F9
:1021F000882311F084E005C08091E30087FDFACFC9
:1022000081E08093E4010E94E70310CF8091E70111
:10221000813009F00BCF81E0933009F080E08093AA
:10222000E2011092E9008091E800877F8093E80046
:10223000FFDCFCCE0895CF938091E401882399F0D0
:10224000C091E900CF709091EC00892F817090FDD2
:1022500080E8C82B1092E9008091E80083FDBEDE83
:10226000CF70C093E900CF910895991B79E004C025
:10227000991F961708F0961B881F7A95C9F78095C5
:102280000895FB01DC0102C001900D9241505040C5
:10229000D8F70895F999FECF92BD81BDF89A992794
:1022A00080B50895262FF999FECF1FBA92BD81BD42
:1022B00020BD0FB6F894FA9AF99A0FBE01960895C8
:0422C000F894FFCFC0
:1022C4000101010100000104000000000000000001
:0C22D400010303000000000000000000F7
:00000001FF
