:1000000089C00000A3C00000A1C000009FC0000084
:100010009DC000009BC0000099C0000097C0000078
:1000200095C0000093C000000C940D0E0C94DA0EE5
:100030008DC000008BC0000089C0000087C0000098
:1000400085C0000083C0000081C000007FC00000A8
:100050007DC000007BC0000079C000000C94F50852
:1000600075C0000073C0000071C000006FC00000C8
:100070006DC000006BC0000069C0000067C00000D8
:1000800065C0000063C0000061C000005FC00000E8
:100090005DC000005BC0000059C0000057C00000F8
:1000A00055C0000053C0000051C0000010034700BD
:1000B00070006900620055007300620000001603C2
:1000C000580079007000680072006F004C006100F9
:1000D0006200730000000403090409022700010103
:1000E00000C0320904000002FE03010007050302FC
:1000F00040000507058202400005000000000000E6
:10010000001201100100000008EB0365200100014E
:100110000203010011241FBECFEFDAE0DEBFCDBF26
:1001200011E0A0E0B1E0E8E3F1E202C005900D9239
:10013000AC32B107D9F721E0ACE2B1E001C01D92C9
:10014000AD3FB207E1F731D70C949A1059CF4FE584
:1001500050E0AFB7F89493E090938B018823B1F10E
:1001600087E490E090938D0180938C0180E590E08E
:1001700090938F0180938E0189E490E09093910198
:100180008093900182E490E0909393018093920198
:100190005093950140939401809102016AE00E947E
:1001A0006F10282F30E0205D3F4F30939701209350
:1001B0009601892F90E0C0969093990180939801C1
:1001C00050939B0140939A0188E001C080E090E049
:1001D0006EE071E2282F290FE62FF0E070935700B0
:1001E000E49190FF03C0E295EF706F5FEF7030E035
:1001F0004E2F50E0EA3018F0495C5F4F02C0405D7E
:100200005F4FF901EE0FFF1FE457FE4F518340830C
:100210009F5F9431F9F68B5E880F80938A01AFBFA0
:100220000895982F80ED890F8A3008F080E02FE93B
:10023000290F263010F489EA890F2FEB290F263079
:1002400010F489EC890F089585E38A95F1F7000091
:100250008091850190918601A0918701B0918801DC
:100260000097A105B10569F00197A109B109809333
:10027000850190938601A0938701B093880180E067
:10028000089581E008950E94551090917A0180911F
:100290007B01892B08950E94551090917B018091DC
:1002A0007A01892B08950E94980DF8942FEF87EA20
:1002B00091E6215080409040E1F700C000009CE0B2
:1002C00088E10FB6F894A895809360000FBE9093D4
:1002D0006000EFEFF9E628E1E150F0402040E1F75F
:1002E00000C00000E0E0F0E70995FFCF0E94EB0AB4
:1002F00091E08F3F11F490E081E080930201892F1B
:100300000895EF92FF920F931F93CF93DF9300D046
:10031000CDB7DEB77C0110928A0180EA96E8A1E0B1
:10032000B0E08093850190938601A0938701B093FC
:10033000880164E271E0809102010E94BB0A87019A
:10034000F80181918F01882391F0409185015091AE
:1003500086016091870170918801452B462B472BC0
:1003600079F344E251E060E00E94DB0AE9CF84E2E5
:1003700091E00E948B0A8091850190918601A09165
:100380008701B0918801892B8A2B8B2B11F480E097
:1003900072C080EA96E8A1E0B0E080938501909376
:1003A0008601A0938701B093880164E271E0809197
:1003B00002010E949F0A03E010E044E251E0BE0106
:1003C0006F5F7F4FCE0102960E94000A982F9F7E9A
:1003D0009A3271F09F3261F08C3551F0982F9D7FE9
:1003E000903231F08C3221F0863211F08F3521F4C9
:1003F0000150E9F08FE501C003E090EE980F9F35C2
:1004000050F4E12FF0E0EE0FFF1FE457FE4F90E0B5
:10041000918380831F5F123350F48981811107C05B
:100420008A81882351F203C0123060F01150E12F0D
:10043000F0E0EE0FFF1FE657FE4F808191818F3570
:10044000910591F384E291E00E948B0A80918501ED
:1004500090918601A0918701B0918801892B8A2B08
:100460008B2B09F494CF112309F491CF1F5F110F47
:1004700010938A0181E00F900F90DF91CF911F912F
:100480000F91FF90EF900895CF938BE191E039DFCA
:1004900081110EC080E291E034DF811109C087E252
:1004A00091E02FDFC82F811103C081E050DE01C031
:1004B000C1E080E0D0D62FEF81EE94E02150804063
:1004C0009040E1F700C0000081E0C5D68C2FCF91AD
:1004D00008951A9BE8CE08951F93CF93DF93EC0104
:1004E000162FF999FECFCE010E948410811749F092
:1004F000F999FECF612FCE01DF91CF911F910C941E
:100500008C10DF91CF911F91089584B7877F84BFAE
:100510000FB6F894A8958091600088618093600080
:10052000109260000FBE90E080E80FB6F8948093C0
:100530006100909361000FBE0E94F00DE0EEF0E0CC
:1005400080818160808380E002DE859A8D9A0895A3
:100550000895089542E361EC81E00E94110D42E3A9
:1005600061E882E00E94110D42E360E883E00C94B0
:10057000110D882319F0813021F0089588E690E06C
:10058000ABCF613041F0623061F46DE089E690E01C
:10059000A3DF8DE00BC06AE089E690E09DDF8AE092
:1005A00005C060E089E690E097DF80E00C94E10A06
:1005B000F999FECF882319F0813029F010C088E620
:1005C00090E00C94841089E690E00E9484108A30B8
:1005D00041F08D3011F482E0089580E008958FEFAE
:1005E000089581E00895CF939091F501892F807649
:1005F000803409F049C0892F8F7109F045C080917E
:10060000F601811141C02091F9013091FA012230A7
:100610003105D0F597FD11C08091FB019091FC014F
:10062000892B59F46091F701822FA3DF8091E800B4
:10063000877F8093E8000E94460D8091F50187FF37
:1006400023C08091FB019091FC010197E9F4809116
:10065000F901AEDF40E553EC60E070E040938501C6
:100660005093860160938701709388019091E80010
:10067000977F9093E8008093F1008091E8008E7757
:100680008093E8000E94460D8091F9019091FA0153
:10069000009739F48091F5018F71813009F07DC1A7
:1006A0000CC08238910519F0039709F076C180914A
:1006B000F5018F71823009F070C18091F6018630AA
:1006C00009F4FCC090F4833009F48CC038F4813014
:1006D00009F459C0823009F479C05FC1843009F44B
:1006E000A8C0853009F4D5C058C1803871F118F51B
:1006F000873009F405C1803409F04FC18091E800CA
:10070000877F8093E800C1E0C093F1008091E8000A
:100710008E778093E8000E94460D8D982FEF84E33A
:100720009CE0215080409040E1F700C000008D9A8D
:10073000C093360132C1813A09F40EC1823A09F4FC
:10074000FBC0803A09F029C1F0C0C091F70180E5F3
:1007500093ECA0E0B0E08093850190938601A09394
:100760008701B093880164E271E08091020192D622
:100770009091E800977F9093E80091E09093F100CA
:10078000C093F10000C19091F501923A09F005C1C2
:1007900090917C0191110EC02091790130E040913F
:1007A000F7015091F8014217530731F480937C010F
:1007B00081E003C083E801C081E891E090937A0171
:1007C0009091E800977F9093E800DDC08091F5015B
:1007D000823A09F0E2C080917C018130D9F58091A4
:1007E0007A0132C09091F501923A09F0D6C0909109
:1007F0007C0191110EC02091790130E04091F70108
:100800005091F8014217530731F480937C0181E045
:1008100003C083E801C081E891E090937B0190914F
:10082000E800977F9093E8008093F1008091790130
:10083000AAC08091F501823A09F0AFC080917C0195
:10084000833041F480917B01811106C010927C01BC
:1008500081E003C082E801C082E09091E800977FC8
:100860009093E8008093F1001092F1001092F10053
:1008700080917701909178018093F100A0E0B0E041
:10088000892F9A2FAB2FBB278093F1001092F10094
:1008900034C09091F501913A09F07FC090917C01AC
:1008A000992321F083E88093F10067C091E0909351
:1008B0007B0190937A0180937C015FC08091F50168
:1008C000813A09F06AC080917C01853061F48091A1
:1008D0007B0181110AC080917A01811106C01092BA
:1008E0007C0181E003C082E801C082E09091E800D1
:1008F000977F9093E8008093F1001092F10045C03B
:100900008091F501813A09F048C08091E800877F25
:100910008093E80068E170E083E091E04AD780913D
:10092000E8008B778093E80038C08091F701813030
:1009300009F080E090D421C080E593ECA0E0B0E025
:100940008093850190938601A0938701B0938801DD
:1009500084E291E04AD511C080E593ECA0E0B0E0DC
:100960008093850190938601A0938701B0938801BD
:1009700064E271E08091020124D58091E800877FD4
:100980008093E80081E08093F1008091E8008E7709
:100990008093E800CF910C94460DCF9108950F936A
:1009A0001F93CF93DF93EC0189813BDC182F8A8161
:1009B00038DC90E1199F800D1124182F8B8131DCD8
:1009C000082F8C812EDC682F90E1099F600D112487
:1009D000812FDF91CF911F910F91CBCDCF92DF92DD
:1009E000EF92FF920F931F93CF93DF937C01C62F5B
:1009F000D42ED22F442349F080913601882329F048
:100A000081E0F7019081913209F080E080FF04C01D
:100A10006C2FC701C4DF24C081E01DD48D98DD2078
:100A200029F0B80180910201A6D501C080E0CD2E49
:100A3000CC2379F0811113C0C150F70181917F015E
:100A4000C11102C06C2D01C060E06170A801B3D576
:100A5000EFCFDD2321F0811102C0C8015CD58D9A52
:100A600010923601DF91CF911F910F91FF90EF907F
:100A7000DF90CF9008956F927F928F929F92AF9266
:100A8000BF92CF92DF92FF920F931F93CF93DF938A
:100A900000D0CDB7DEB75C01F62E742E4901680197
:100AA00081E0D9D38D981982772029F0B8018091FF
:100AB000020145D589831A8287E3682E81E0782E6A
:100AC00010E09A818981911113C0F116B1F0811162
:100AD00018C0A601BE016F5F7F4FCE01029690D471
:100AE00099819111EECF1F5FF30181933F01E9CF0F
:100AF000811107C0C6010FD5F12E8981882321F00D
:100B00001F2D81E08A83F12E8A81F40180834F2D8D
:100B100050E067E371E0C5010E947B108D9A8F2D34
:100B20000F900F90DF91CF911F910F91FF90DF9069
:100B3000CF90BF90AF909F908F907F906F900895CF
:100B400081E08093010180930001109232011092A4
:100B50003301109234011092350183C30F931F9318
:100B6000CF93DF9300D0CDB7DEB723E02093E90029
:100B70002091E80022FF1CC08C011A821982AE016C
:100B80004F5F5F4F6CE070E0C801CAD5982F80912D
:100B90007A01953011F4882391F3F8012181209393
:100BA0007901811102C081E0911180E0817001C062
:100BB00080E00F900F90DF91CF911F910F910895DA
:100BC0000F931F93CF93DF9300D0CDB7DEB78C0187
:100BD00080917901F80181838095828382E08093FE
:100BE000E9001A821982AE014F5F5F4F6CE070E03E
:100BF000C8014DD590917B01853011F4992399F36B
:100C0000911105C091E0811190E0892F01C080E031
:100C100081700F900F90DF91CF911F910F910895E8
:100C2000BF92CF92DF92EF92FF920F931F93CF93D9
:100C3000DF93CDB7DEB7CD58D1090FB6F894DEBF3C
:100C40000FBECDBF8091F401843009F09DC1809129
:100C5000320190913301A0913401B0913501892B7B
:100C60008A2B8B2B09F020C1CE018F579F4F76DF47
:100C7000882309F47DC180912C0190912D0101966A
:100C800090932D0180932C01CF57DF4F8881C1585D
:100C9000D040823009F49EC0803821F0813009F0C4
:100CA000FDC017C080E593ECA0E0B0E08093850123
:100CB00090938601A0938701B093880164E271E06C
:100CC0008091020169D38091E8008B778093E800DE
:100CD0004FC1CB57DF4F3881C558D040CA57DF4F7F
:100CE0002881C658D040C957DF4F9881C758D04097
:100CF000C857DF4F8881C858D040309332012093C5
:100D00003301909334018093350110927801109251
:100D10007701C32ED22EE92EF82E85E3C816D10412
:100D2000E104F10428F094E3C92ED12CE12CF12C3C
:100D3000BC2C47E751E0B601CE010196F1D48530D5
:100D400021F480917A018823A1F38091320190915E
:100D50003301A0913401B09135018C199D09AE0980
:100D6000BF098093320190933301A0933401B09373
:100D70003501C757DF4F2881C958D04031E02111D4
:100D800001C030E030938901222329F021E0892B32
:100D90008A2B8B2B09F020E02170C357DF4F28836B
:100DA000CD58D04003E411E0409101016B2DCE01FC
:100DB000019614DE83E08093E9008091E8008B7750
:100DC0008093E800C357DF4F8881CD58D04080938F
:100DD0000101CEC08091E8008B778093E800CB576B
:100DE000DF4F688179818A819B81C558D040643307
:100DF00071058105910520F063E370E080E090E0EB
:100E00000BE411E09E0123573F4F40910001CE01BA
:100E1000019631DE90E0A0E0B0E0CB57DF4F888351
:100E20009983AA83BB83C558D040C357DF4F8881BD
:100E3000CD58D04080930001C757DF4F8883C958F1
:100E4000D04080917B01811104C0CE018F579F4F0C
:100E5000B7DE109278011092770180917B01882390
:100E600079F082E08093E9008091E8008E778093AA
:100E7000E80080917B01882309F47AC061DE78C0A4
:100E8000CB57DF4F68817981C558D04047E751E0A3
:100E9000CE010196FCD3853001F3E3CF8091EB00C6
:100EA00080628093EB0064C083E08093E9008091CE
:100EB000E80082FF5DC01092780110927701809166
:100EC000320190913301A0913401B0913501803409
:100ED0009105A105B10510F4F82E02C080E4F82EAA
:100EE000CF2CD12C47E751E0B601CE01019618D4A2
:100EF000853021F480917A018823A1F38091320119
:100F000090913301A0913401B09135018F1991096D
:100F1000A109B1098093320190933301A093340168
:100F2000B09335018091E8008B778093E800809141
:100F30008901882369F021E0809132019091330189
:100F4000A0913401B0913501892B8A2B8B2B09F0AC
:100F500020E02170C357DF4F2883CD58D040209325
:100F6000010103E411E040E06F2DCE01019636DD72
:100F700080917A01811103C080917B018111E0DDB4
:100F800010927B0110927A01C357DF4F0FB6F8948D
:100F9000DEBF0FBECDBFDF91CF911F910F91FF90AC
:100FA000EF90DF90CF90BF90089514BE0FB6F894E5
:100FB000A895809160008861809360001092600025
:100FC0000FBE2A9A2298A1DA60D1F999FECF89E65C
:100FD00090E00E948410F5D2789436D1811117C028
:100FE0002FEF84E39CE0215080409040E1F700C067
:100FF00000008D9AEFEFF4E32CE0E150F040204048
:10100000E1F700C000008D9864DAE7CF62DA6ED9AC
:1010100081112CC08FEF91EEE4E081509040E040D0
:10102000E1F700C000008D9AFFEF21EE84E0F1505F
:1010300020408040E1F700C000008D9805D181116B
:10104000E5CF8D989FEFE9E6F8E19150E040F04060
:10105000E1F700C000009CE088E10FB6F894A89585
:10106000809360000FBE90936000FFCFF999FECF90
:1010700088E690E00E948410813081F1F999FECFDA
:1010800080E090E00E948410C82FFED9882399F058
:101090006091020180E090E01FDA0AE811E0C0E010
:1010A000D0E0F80161918F012196CE0115DAC636A4
:1010B000D105B9F722C080910201C8131EC00AE809
:1010C00011E0C1E0D0E0CE010E948410F8018193CC
:1010D0008F012196C736D105B1F70FC081E037D80F
:1010E00080E0B9D0FFEF21EE84E0F1502040804055
:1010F000E1F700C0000081E0AED08D9A8091E00061
:101100008E7F8093E0008CDDE4D99ED081111AC0DF
:101110008D988091E00081608093E0009FEFE9E688
:10112000F8E19150E040F040E1F700C000009CE0A1
:1011300088E10FB6F894A895809360000FBE909355
:101140006000FFCFB2D7DFCFF9011082692F772778
:101150006230710559F06330710569F061307105D5
:1011600049F582E190E021E031E028C087E290E09B
:101170002AED30E023C099278130910591F070F07D
:101180008230910589F00397A9F480918A0190E05B
:1011900062E0F90160832AE831E010C0E6EDF0E09A
:1011A00005C0EEEBF0E002C0ECEAF0E0849190E0E4
:1011B0009F0104C080E090E020E030E0FA0131833C
:1011C0002083089585E38A95F1F7000080917D01E1
:1011D00090917E01009739F0019790937E01809362
:1011E0007D0180E0089581E008951F920F920FB66F
:1011F0000F9211248F93809183018F5F80938301DD
:101200008630E0F0809184018F5F8093840110929A
:10121000830180918001811111C07E990AC0809163
:101220008101823011F481E007C08F5F80938101DA
:1012300005C01092810182E0809382018F910F900E
:101240000FBE0F901F90189581E09091820192300F
:1012500009F080E00895882311F0259A08952598D3
:1012600008956A9A2FEF81EE94E0215080409040DB
:10127000E1F700C000006A988FE39CE90197F1F75D
:1012800000C000001092800108951AB81BB885B103
:101290008F7885B984B18F7884B988B18F7388B914
:1012A00087B18F7387B972986A9881B38F7381BB46
:1012B00080B38F7380BB259A1092800110928101B8
:1012C000D0DF85E085BDEEE6F0E08081816080833F
:1012D000109283011092840108950F931F93CF936E
:1012E0008A0126983E983F98662311F0869A01C09D
:1012F00086988AB985E08A95F1F70000F80109958A
:10130000C82F369903C08823C9F30BC0811109C0C7
:10131000269AF8010995C82F379902C08823C9F386
:1013200026981AB88698C111B0DF8C2FCF911F91E3
:101330000F9108950F931F93CF93C82F8B018F7137
:10134000AB0161E08064C9DFC07E39F0A80161E0D3
:1013500080E6CF911F910F91C0CFCF911F910F9138
:1013600008950F931F93CF93C82F8B018F71AB01FB
:1013700061E08062B2DFC07E39F0A80161E080E602
:10138000CF911F910F91A9CFCF911F910F910895E8
:10139000AC0161E08FE3A1CFCF93DF93EB01E1DFFD
:1013A00081110AC0AE0161E088E097DF811104C0BD
:1013B000CE01EEDF882311F068DF81E0DF91CF916D
:1013C0000895CF93DF93EB01CCDF811109C0AE010B
:1013D00061E081E082DF811103C0CE01D9DF81119C
:1013E00054DF80E0DF91CF910895CF93AC0161E0AD
:1013F00081E173DFC82F811148DF8C2FCF910895D1
:10140000AF92BF92DF92EF92FF920F931F93CF9311
:10141000DF938C017B015A013F9A3E98F5010995B3
:10142000D82F1E9B03C08823C9F314C0811112C09A
:101430003E9AC9B1C095D3B0D4FADD24D0F881E08A
:10144000D8263F98F5010995D82F1E9905C0882305
:10145000C9F302C0D12CC0E090917F01911103C06B
:10146000F801D08208C081E0D11002C0C91380E029
:101470008170F8018083D11108DFF701D0838C2FB0
:10148000DF91CF911F910F91FF90EF90DF90BF9070
:10149000AF900895FF920F931F93CF93DF9300D0E7
:1014A000CDB7DEB7F82E8B011A82AB0161E088E17F
:1014B00014DF8A83811104C0B8018F2D3BDF8A833A
:1014C00086983F9A8A81811109C0A801BE016E5F8A
:1014D0007F4FCE01019694DFF82E01C0F12C8A8156
:1014E000811105C0A80161E08FE5F7DE8A838A815A
:1014F000811105C0A80161E089E1EFDE8A838A815C
:101500008111C3DE8F2D0F900F90DF91CF911F912E
:101510000F91FF900895CF93DF93EC0139DF88237B
:1015200019F0B3DE81E006C0AE0161E08FE5D5DEE3
:101530008111F7CF10928001DF91CF9108950F9321
:101540001F93CF93DF93D82F8B0181E0809380018D
:10155000CB011EDFC82F811104C0B8018D2FEADE38
:10156000C82F86983F9AC11190DE8C2FDF91CF91C2
:101570001F910F9108951F93CF93DF93182FEB01C5
:1015800081E080938001AB0161E08FE5A6DE8823D6
:1015900011F0C1E008C0CE01FBDE8111FACFBE011F
:1015A000812FDFDEC82F8698C1116FDE8C2FDF916F
:1015B000CF911F9108956111249A60E08EDE2498E6
:1015C00008958A3011F08D3019F480937F010895C9
:1015D00010927F0108950F931F93CF93DF9384EFB1
:1015E00091E090937E0180937D0142EE58E061E0AE
:1015F0008FE373DECEE304EF11E08C2F8F718F3118
:1016000021F4C150D0F7DFEF14C010937E01009396
:101610007D01DC2F62EE78E08C2FA3DE86988FE3CD
:101620009FE10197F1F700C000003799EACF7E9B58
:10163000E8CF84EF91E090937E0180937D0142EEAC
:1016400058E061E08FE349DEC5FF1BC0CF7162EE59
:1016500078E08C2F86DE86988FE39FE10197F1F783
:1016600000C00000379902C07E99DC2F84EF91E022
:1016700090937E0180937D0142EE58E061E08FE31C
:101680002CDE8D2FDF91CF911F910F910895CF9276
:10169000DF92EF92FF920F931F93CF93DF93EC01B2
:1016A0008B017A0112D2811132C0E114F10439F0B8
:1016B000F70180819181081B190BC80FD91FC12C1C
:1016C000D12C0115110511F18091E80085FD15C09F
:1016D0008091E8008E778093E800E114F10449F0EE
:1016E000F70180819181C80ED91ED182C08285E028
:1016F0000EC0EBD1882329F30AC089918093F100B1
:1017000001501109FFEFCF1ADF0ADBCF80E0DF9134
:10171000CF911F910F91FF90EF90DF90CF900895A0
:10172000CF92DF92EF92FF920F931F93CF93DF93AD
:10173000EC018B017A01C9D1811132C0E114F104AD
:1017400039F0F70180819181081B190BC80FD91F4F
:10175000C12CD12C0115110511F18091E80085FDF6
:1017600015C08091E8008B778093E800E114F104C4
:1017700049F0F70180819181C80ED91ED182C082C3
:1017800085E00EC0A2D1882329F30AC08091F10020
:10179000899301501109FFEFCF1ADF0ADBCF80E0F8
:1017A000DF91CF911F910F91FF90EF90DF90CF903D
:1017B00008952091FB013091FC012617370748F06E
:1017C0006115710539F42091E8002E772093E80027
:1017D00001C0B901FC0120E06115710579F180912A
:1017E000F4018823F1F18530F1F18091E80083FD67
:1017F0003CC08091E80082FD2EC08091E80080FF0F
:10180000EBCF2091F3008091F20090E0922B6115D4
:10181000710551F08830910538F421912093F10041
:10182000615071090196F3CF21E0089709F020E09B
:101830008091E8008E778093E800CECF2111CFCF42
:101840000AC08091F401882361F0853061F08091B5
:10185000E80083FD0AC08091E80082FFF2CF80E0BB
:10186000089582E0089583E0089581E0089520912D
:10187000FB013091FC012617370748F0611571050F
:1018800039F42091E8002E772093E80001C0B901D7
:10189000FC0120E06115710591F18091F40188232C
:1018A00009F440C0853009F43FC08091E80083FD11
:1018B0003DC08091E80082FD2FC08091E80080FF4C
:1018C000E9CF2091F3008091F20090E0922B611516
:1018D000710559F08830910540F424912093F1006E
:1018E0003196615071090196F2CF21E0089709F015
:1018F00020E08091E8008E778093E800CBCF211123
:10190000CCCF0AC08091F401882361F0853061F06A
:101910008091E80083FD0AC08091E80082FFF2CF49
:1019200080E0089582E0089583E0089581E00895BD
:10193000CF92DF92EF92FF920F931F93CF93DF939B
:10194000EB012091FB013091FC012617370740F095
:10195000209739F42091E8002E772093E80001C009
:10196000E9016C0120E02097D9F18091F4018823EE
:1019700009F449C0853009F448C08091E80083FD2E
:1019800046C08091E80082FD38C08091E80080FF69
:10199000EACF8091F3000091F20010E0182B78015B
:1019A000C701801B910B8C0D9D1D209761F038E0C5
:1019B000E316F10440F4A8D38093F10021972FEFB0
:1019C000E21AF20AEDCF21E038E0E316F10409F063
:1019D00020E03091E8003E773093E8006C01C3CFFF
:1019E0002111C3CF0AC08091F401882361F08530B2
:1019F00061F08091E80083FD0AC08091E80082FFD9
:101A0000F2CF80E005C082E003C083E001C081E046
:101A1000DF91CF911F910F91FF90EF90DF90CF90CA
:101A20000895982F973068F59093E900981739F04A
:101A30007091EC002091ED005091F00003C0242F34
:101A4000762F50E021FD02C09F5FECCF3091EB007C
:101A50003E7F3093EB003091ED003D7F3093ED0001
:101A60003091EB0031603093EB007093EC002093E9
:101A7000ED005093F0002091EE0027FDE5CF80E0CF
:101A800008958F708093E90081E008958091F501B9
:101A900087FF11C08091E80082FD05C08091F401AC
:101AA0008111F8CF11C08091E8008B770BC0809135
:101AB000F401882349F08091E80080FFF8CF8091FD
:101AC000E8008E778093E80008952091E40030913B
:101AD000E50095E64091EC00842F817040FF23C023
:101AE0008091E80080FD1DC08091F401882399F069
:101AF000853099F08091EB0085FD11C04091E400A4
:101B00005091E5002417350729F3915011F09A01FF
:101B1000E1CF84E0089582E0089583E0089581E0B4
:101B2000089580E008954091E80042FFDDCF0895D8
:101B300067D06ED0E0EEF0E0808181608083E8EDD8
:101B4000F0E080818F77808319BCA7EDB0E08C91A5
:101B50008E7F8C9380818F7E80831092F301089515
:101B60000F931F93CF93DF934BD052D0C8EDD0E0AB
:101B700088818F77888388818068888388818F7D3A
:101B8000888319BC1092F4011092F0011092F201B6
:101B90001092F10100EE10E0F80180818B7F8083CC
:101BA00088818160888342E060E080E03ADFE1EE96
:101BB000F0E080818E7F8083E2EEF0E080818160C2
:101BC0008083808188608083F80180818E7F80831C
:101BD000888180618883DF91CF911F910F91089553
:101BE000E8EDF0E080818F7E8083E7EDF0E080819A
:101BF0008160808384E082BF81E08093F301B0CF75
:101C0000E8EDF0E080818E7F80831092E2000895FD
:101C10001092DA001092E10008951F920F920FB611
:101C20000F9211242F933F934F935F936F937F9362
:101C30008F939F93AF93BF93EF93FF938091E100B6
:101C400082FF0AC08091E20082FF06C08091E1001D
:101C50008B7F8093E10028D28091DA0080FF1FC043
:101C60008091D80080FF1BC08091DA008E7F809326
:101C7000DA008091D90080FF0DC080E189BD82E14A
:101C800089BD09B400FEFDCF81E08093F4010E947C
:101C9000A80205C019BC1092F4010E94A90280910B
:101CA000E10080FF18C08091E20080FF14C08091A5
:101CB000E2008E7F8093E2008091E2008061809359
:101CC000E2008091D80080628093D80019BC85E042
:101CD0008093F401E9D18091E10084FF2FC08091CD
:101CE000E20084FF2BC080E189BD82E189BD09B497
:101CF00000FEFDCF8091D8008F7D8093D800809129
:101D0000E1008F7E8093E1008091E2008F7E8093DE
:101D1000E2008091E20081608093E2008091F00116
:101D2000882311F084E007C08091E30087FD02C0A2
:101D300081E001C083E08093F401B6D18091E1009D
:101D400083FF27C08091E20083FF23C08091E100E0
:101D5000877F8093E10082E08093F4011092F0018C
:101D60008091E1008E7F8093E1008091E2008E7F80
:101D70008093E2008091E20080618093E20042E083
:101D800060E080E04EDE8091F00088608093F0009B
:101D90008BD1FF91EF91BF91AF919F918F917F91E7
:101DA0006F915F914F913F912F910F900FBE0F90C8
:101DB0001F9018951F920F920FB60F9211242F9318
:101DC0003F934F935F936F937F938F939F93AF93C3
:101DD000BF93CF93DF93EF93FF93C091E900CF7050
:101DE0008091EC00D82FD17080FDD0E81092E900EE
:101DF0008091F000877F8093F00078941ED010923D
:101E0000E9008091F00088608093F000CD2BCF70C6
:101E1000C093E900FF91EF91DF91CF91BF91AF9116
:101E20009F918F917F916F915F914F913F912F91F2
:101E30000F900FBE0F901F9018951F93CF93DF93B5
:101E400000D01F92CDB7DEB7E5EFF1E08DEF91E066
:101E50002091F10021938E179F07D1F70E94F30282
:101E60008091E80083FF0BC18091F5019091F6010C
:101E7000953009F483C030F49130A9F168F09330C3
:101E800091F1FDC0983009F4C9C0993009F4D5C06A
:101E9000963009F0F4C094C0803821F0823809F0FF
:101EA000EEC008C08091F1019091F201992389F070
:101EB00082600FC08091F9018F70873008F0DFC019
:101EC0008093E9008091EB0085FB882780F91092D0
:101ED000E9009091E800977F9093E8008093F100EB
:101EE0001092F100A6C0282F2D7F09F0C8C08823CA
:101EF00019F0823061F0C3C08091F701813009F0A0
:101F0000BEC0933009F080E08093F2012EC0809132
:101F1000F70181112AC08091F9018F702FEF280FEE
:101F2000263008F0ACC08093E9002091EB0020FF40
:101F30001CC0933021F48091EB00806214C090911A
:101F4000EB0090619093EB0021E030E0A90102C02A
:101F5000440F551F8A95E2F74093EA001092EA0079
:101F60008091EB0088608093EB001092E9008091F3
:101F7000E800877F8093E80089DD81C081117FC000
:101F80001091F7011F778091E3008078812B809377
:101F9000E3008091E800877F8093E80077DD8091FF
:101FA000E80080FFFCCF8091E30080688093E3002D
:101FB000111102C082E001C083E08093F4015FC090
:101FC0008058823008F05BC06091F9017091FA018D
:101FD0009E012D5F3F4FAE014F5F5F4F8091F70134
:101FE0009091F801B1D8BC01892B09F448C08091C7
:101FF000E800877F8093E8002B8189819A812111F5
:1020000002C035DC05C0213011F492DC01C0D1DB07
:102010008091E8008B778093E80031C0803879F5B3
:102020008091E800877F8093E8008091F0018093A1
:10203000F1008091E8008E779DCF811120C08091C2
:10204000F7019091F80199270297CCF48091E8006C
:10205000877F8093E8008091F7018093F00116DD7F
:102060008091F001811106C08091E30087FD02C0DC
:1020700081E001C084E08093F4010E94AA02809173
:10208000E80083FF0AC08091E800877F8093E80022
:102090008091EB0080628093EB000F900F900F9087
:1020A000DF91CF911F9108950895CF938091F4010E
:1020B000882399F0C091E900CF709091EC00892FAE
:1020C000817090FD80E8C82B1092E9008091E800B3
:1020D00083FDB3DECF70C093E900CF910895991BC3
:1020E00079E004C0991F961708F0961B881F7A950F
:1020F000C9F780950895FB01DC0102C001900D92A3
:1021000041505040D8F70895F999FECF92BD81BD56
:10211000F89A992780B50895262FF999FECF1FBA0E
:1021200092BD81BD20BD0FB6F894FA9AF99A0FBE00
:0821300001960895F894FFCF19
:10213800010101010000010400000000000000008E
:10214800010303000000000000000053490D0A00CD
:0C2158002A49444E3F0A0049443F0A0057
:00000001FF
